:100000000A128A11CD2C00308A000408840A820763
:1000100000344D3441345334543445345234203454
:1000200049346E347434653472346E3461346C34F3
:10003000003443347934743472346F346E34203481
:0A00400050345234323437340034A7
:100998000134FC010A128A11CC240A128A11AA0015
:1009A80083010A128A11632EF000DA2C83120313D2
:1009B8000C1EDF2CE02CDA2CE12C700899000800C2
:1009C800E52C831203138C1EEA2CEB2CE52CEC2C63
:1009D8001A08F0007008F1007108F22C08000130C4
:1009E8000A128A1124250A128A110030F3000030F5
:1009F800F2000230F1005830F0000A128A119425F2
:100A08000A128A110800FA0010307A0203180D2D14
:100A18000E2D162D7A08803E0A128A1124250A12F4
:100A28008A11232D7A08EC3EF9007908FA007A0831
:100A3800C03E0A128A1124250A128A11232D0800A1
:100A4800F80083120313071278088600871600300F
:100A5800F3000030F2000030F1003230F0000A12EA
:100A68008A1194250A128A118312031387120030FF
:100A7800F3000030F2000030F1003230F0000A12CA
:100A88008A1194250A128A110800F80083120313A8
:100A980007167808860087160030F3000030F20049
:100AA8000030F1003230F0000A128A1194250A123F
:100AB8008A118312031387120030F3000030F2000A
:100AC8000030F1003230F0000A128A1194250A121F
:100AD8008A110800FA00812D7A0884000A128A1106
:100AE80003200A128A110A128A1149250A128A1148
:100AF8000130F9007908FA07812D7A08031D852D40
:100B0800932D7A0884000A128A1103200A128A1186
:100B18000038031D902D912D702D932D932D0800D5
:100B28007308720471047004031D9B2D9C2D9E2D67
:100B3800C32DC32D0130F4000030F5000030F6005D
:100B48000030F7007408F0027508031C750FAD2D0E
:100B5800AE2DF1027608031C760FB32DB42DF202E8
:100B68007708031C770FB92DBA2DF30273087204A6
:100B780071047004031DC12DC22D9E2DC32D0800C4
:100B8800F300F308031DC92DCA2DE12D01300A1207
:100B98008A11D8240A128A1100300A128A11D8241C
:100BA8000A128A110A128A11E4240A128A11F2001E
:100BB800720883120313AA00F82D01300A128A1151
:100BC800D8240A128A1101300A128A11D8240A126A
:100BD8008A110A128A11E4240A128A11F200720890
:100BE80083120313AA00F82D0800F300F308031D6D
:100BF800FE2DFF2D162E02300A128A11D8240A1251
:100C08008A1100300A128A11D8240A128A110A128B
:100C18008A11E4240A128A11F2007208831203135B
:100C2800AA002D2E02300A128A11D8240A128A111B
:100C380001300A128A11D8240A128A110A128A115A
:100C4800E4240A128A11F200720883120313AA001C
:100C58002D2E0800F300F308031D332E342E4B2EDF
:100C680003300A128A11D8240A128A1100300A1293
:100C78008A11D8240A128A110A128A11E4240A1243
:100C88008A11F200720883120313AA00622E03303D
:100C98000A128A11D8240A128A1101300A128A11FA
:100CA800D8240A128A110A128A11E4240A128A1113
:100CB800F200720883120313AA00622E080083123E
:100CC8000313A4010314A40D03100030031801300A
:100CD800A100A5010314A50D03100030031801306D
:100CE800A200A6010314A60D03100030031801305A
:100CF800A300A7010314A70DA8010314A80DA901B7
:100D08000314A90D83160313860187011C3085007F
:100D180006309F0001300A128A1124250A128A110E
:100D280002300A128A1124250A128A1106300A1280
:100D38008A1124250A128A110C300A128A112425D4
:100D48000A128A1138300A128A1124250A128A11C5
:100D58008312031385100510851286010A128A1161
:100D6800F3240A128A1100300A128A1107250A127E
:100D78008A1111300A128A116E250A128A1114304A
:100D88000A128A1107250A128A1101300A128A11D9
:100D98006E250A128A1183160313071387178130E9
:100DA8009900181598161813831203131813181698
:100DB80098171A08FB007B08A0001A08FB007B089C
:100DC800A000851005108512E92E0519EC2EED2ED0
:100DD800052F2408031DF12E112F031000300318CE
:100DE8000130A400A108003003190130FB007B0882
:100DF800A10021080A128A11C4250A128A11112F8A
:100E0800112F83120313A408031D0B2F0C2F112F6E
:100E1800A4010314A40D112F112F83120313851994
:100E2800162F172F2F2F2508031D1B2F3B2F0310BD
:100E3800003003180130A500A20800300319013062
:100E4800FB007B08A20022080A128A11F9250A125F
:100E58008A113B2F3B2F83120313A508031D352F3F
:100E6800362F3B2FA5010314A50D3B2F3B2F8312D3
:100E78000313051A402F412F592F2608031D452F0C
:100E8800652F0310003003180130A600A3080030B6
:100E980003190130FB007B08A30023080A128A11FA
:100EA8002E260A128A11652F652F83120313A608AE
:100EB800031D5F2F602F652FA6010314A60D652F54
:100EC800652F04300A128A11D8240A128A110130B7
:100ED8000A128A11D8240A128A110A128A11E424E1
:100EE8000A128A11FB007B0883120313AA00AA08BE
:100EF800031D7F2F802F8D2F2708031D842F972FE9
:100F08000310003003180130A70002308506972F20
:100F1800972FA708031D912F922F972FA70103142E
:100F2800A70D972F972F04300A128A11D8240A1276
:100F38008A1102300A128A11D8240A128A110A1256
:100F48008A11E4240A128A11FB007B088312031316
:100F5800AA00AA08031DB12FB22FBF2F2808031D0E
:100F6800B62FC92F0310003003180130A800013034
:100F78008506C92FC92FA808031DC32FC42FC92F41
:100F8800A8010314A80DC92FC92F04300A128A1109
:100F9800D8240A128A1103300A128A11D8240A1294
:100FA8008A110A128A11E4240A128A11FB007B08AA
:100FB80083120313AA00AA08031DE32FE42FF12FBD
:100FC8002908031DE82FE92E03100030031801300B
:100FD800A90020308506E92EE92EA908031DF52F62
:100FE800F62FE92EA9010314A90DE92EE92EE92E01
:080FF800E92E0A128A110028FB
:02400E00323F3F
:00000001FF
