:100000000A128A11E22800308A000408840A820752
:10001000003453344C344134563445342034553450
:100020004134523454345F343134003443347934FD
:10003000743472346F346E34203450345234323469
:04004000373400341D
:1001C400FD01A001A101A201A30183010A128A1168
:1001D400362A01300A128A1141210A128A1100308A
:1001E400F3000030F2000230F1005830F0000A123F
:1001F4008A118C210A128A110800FA0010307A023E
:100204000318052906290E297A08803E0A128A1144
:1002140041210A128A111B297A08EC3EF900790857
:10022400FA007A08C03E0A128A1141210A128A1180
:100234001B290800F80083120313071678088600A8
:1002440087160030F3000030F2000030F100323045
:10025400F0000A128A118C210A128A1183120313E4
:1002640087120030F3000030F2000030F100323029
:10027400F0000A128A118C210A128A110800F8006F
:100284008312031307127808860087160030F300E0
:100294000030F2000030F1003230F0000A128A110E
:1002A4008C210A128A118312031387120030F3007F
:1002B4000030F2000030F1003230F0000A128A11EE
:1002C4008C210A128A110800FA0079297A0884001C
:1002D4000A128A1103200A128A110A128A111C2195
:1002E4000A128A110130F9007908FA0779297A0883
:1002F400031D7D298B297A0884000A128A110320A0
:100304000A128A110038031D8829892968298B2932
:100314008B2908007308720471047004031D932967
:1003240094299629BB29BB290130F4000030F5003B
:100334000030F6000030F7007408F0027508031C62
:10034400750FA529A629F1027608031C760FAB299F
:10035400AC29F2027708031C770FB129B229F30202
:100364007308720471047004031DB929BA2996290B
:10037400BB290800F0001B2A8312031307158316F8
:1003840003130711831203138715831603138715A9
:10039400352A8312031307148316031307108312D9
:1003A40003138714831603138714352AFD010314DA
:1003B400FD0DFD01FD010314FD0DFD010314FD0DF3
:1003C400352AFD010314FD0DFD01FD010314FD0D8E
:1003D400FD010314FD0D352AFD010314FD0DFD017E
:1003E400FD010314FD0DFD010314FD0D352AFD016E
:1003F4000314FD0DFD01FD010314FD0DFD010314A6
:10040400FD0D352AFD010314FD0DFD01FD0103144D
:10041400FD0DFD010314FD0D352AFD010314FD0D31
:10042400FD01FD010314FD0DFD010314FD0D352A2D
:10043400352A7008013A0319BE29033A0319CB2956
:10044400013A0319D829073A0319E329013A031990
:10045400EE29033A0319F929013A0319042A0F3A38
:1004640003190F2A352A0800FC0183160313860199
:1004740087011C30850006309F0001300A128A1162
:1004840041210A128A1102300A128A1141210A12E8
:100494008A1106300A128A1141210A128A110C307B
:1004A4000A128A1141210A128A1138300A128A1159
:1004B40041210A128A118312031385100510851233
:1004C40086010A128A11EB200A128A1100300A12DC
:1004D4008A11FF200A128A110E300A128A1166212B
:1004E4000A128A1114300A128A11FF200A128A1180
:1004F40001300A128A1166210A128A1101300A1285
:100504008A11BC210A128A1101300A128A11E725C4
:100514000A128A11FB007B08FC00CE2B01300A1260
:100524008A11E7250A128A11FB007B08FC00FC08EB
:10053400031D9D2A9E2AA22A831203138510A62A2C
:10054400831203138514A62A6130FB007B08F00094
:1005540001300A128A11E7230A128A11862A01300D
:100564000A128A11E7250A128A11FB007B08FC0093
:10057400FC08031DBE2ABF2AC32A831203130510D5
:10058400C72A831203130514C72A6130FB007B08B2
:10059400F00001300A128A11E7230A128A11862A0E
:1005A40001300A128A11E7250A128A11FB007B081E
:1005B400FC00FC08031DDF2AE02AE42A831203134B
:1005C4008512E82A831203138516E82A6130FB009A
:1005D4007B08F00001300A128A11E7230A128A11FB
:1005E400862A01300A128A11E7250A128A11FB00B1
:1005F4007B08FC00492B83120313051D022B032BDC
:100604000D2BF0010314F00D01300A128A11E723B7
:100614000A128A11862AF00101300A128A11E7238C
:100624000A128A11862A862A83120313851D1B2B1C
:100634001C2B262BF0010314F00D01300A128A1131
:10064400E7230A128A11862AF00101300A128A115C
:10065400E7230A128A11862A862A83120313051EA7
:10066400342B352B3F2BF0010314F00D01300A120B
:100674008A11E7230A128A11862AF00101300A122C
:100684008A11E7230A128A11862A862A862A7C0876
:10069400013A0319FD2A033A0319162B013A0319E7
:1006A4002F2B862A862A01300A128A11E7250A127C
:1006B4008A11FB007B08FC000A128A11EB200A1243
:1006C4008A1183120313A001A101A201A3016130C5
:1006D400FB007B08F00001300A128A11E7230A129A
:1006E4008A11862A01300A128A11E7250A128A1110
:1006F400FB007B08FC00831203132108803AFF00EF
:1007040080307F02031D882B10302002031C8B2BAA
:100714008C2BAA2B831203132208C03E0A128A11BF
:1007240041210A128A117C080A128A111C210A1218
:100734008A11013083120313A2070318A30A00309D
:10074400A3070130A0070318A10A0030A107C22B98
:10075400831203132008803E0A128A1141210A12CF
:100764008A117C080A128A111C210A128A1101308A
:1007740083120313A0070318A10A0030A107C22B98
:100784006130FB007B08F00001300A128A11E72374
:100794000A128A11862A862A7C08013A0319902AA9
:1007A400033A0319B12A013A0319D22A073A031961
:1007B400F32A013A0319552B033A0319742B862A99
:1007C400862A862A0A128A110028F300CC2D831265
:1007D40003130711A830F100F10BEE2BF4010314FD
:1007E400F40DF408031DF72BF82BFA2B1D2C1D2CEC
:1007F40070087405031DFF2B002C082C83120313AF
:100804000711A630F100F10B052C112C83120313F0
:100814000715A630F100F10B0D2C0000112C740803
:10082400F1007107F2007208F400F408031D1B2C98
:100834001C2CFA2B1D2C1E2C1F2C202C212C83123B
:1008440003130715AC30F100F10B262CE62D8312AF
:1008540003130710A830F100F10B2E2CF40103143C
:10086400F40DF408031D372C382C3A2C5D2C5D2C28
:1008740070087405031D3F2C402C482C831203136D
:100884000710A630F100F10B452C512C83120313F1
:100894000714A630F100F10B4D2C0000512C740804
:1008A400F1007107F2007208F400F408031D5B2CD8
:1008B4005C2C3A2C5D2C5E2C5F2C602C612C8312FA
:1008C40003130714AC30F100F10B662CE62DFD0187
:1008D400A830F100F10B6C2CF4010314F40DF408AE
:1008E400031D752C762C782C982C982C7008740584
:1008F400031D7D2C7E2C842CFD01A630F100F10B10
:10090400812C8C2CFD010314FD0DA630F100F10B9C
:10091400892C00007408F1007107F2007208F400D9
:10092400F408031D962C972C782C982C992C9A2C2F
:100934009B2C9C2CFD010314FD0DAC30F100F10B3C
:10094400A12CE62DFD01A830F100F10BA72CF40138
:100954000314F40DF408031DB02CB12CB32CD32CC8
:10096400D32C70087405031DB82CB92CBF2CFD01C1
:10097400A630F100F10BBC2CC72CFD010314FD0DB6
:10098400A630F100F10BC42C00007408F1007107CB
:10099400F2007208F400F408031DD12CD22CB32CFD
:1009A400D32CD42CD52CD62CD72CFD010314FD0D1F
:1009B400AC30F100F10BDC2CE62DFD01A830F10088
:1009C400F10BE22CF4010314F40DF408031DEB2CD9
:1009D400EC2CEE2C0E2D0E2D70087405031DF32C3B
:1009E400F42CFA2CFD01A630F100F10BF72C022DAA
:1009F400FD010314FD0DA630F100F10BFF2C0000E6
:100A04007408F1007107F2007208F400F408031D81
:100A14000C2D0D2DEE2C0E2D0F2D102D112D122D14
:100A2400FD010314FD0DAC30F100F10B172DE62D83
:100A3400FD01A830F100F10B1D2DF4010314F40D98
:100A4400F408031D262D272D292D492D492D700825
:100A54007405031D2E2D2F2D352DFD01A630F1001B
:100A6400F10B322D3D2DFD010314FD0DA630F100D7
:100A7400F10B3A2D00007408F1007107F2007208BE
:100A8400F400F408031D472D482D292D492D4A2D26
:100A94004B2D4C2D4D2DFD010314FD0DAC30F100FB
:100AA400F10B522DE62DFD01A830F100F10B582D6C
:100AB400F4010314F40DF408031D612D622D642D5B
:100AC400842D842D70087405031D692D6A2D702DE5
:100AD400FD01A630F100F10B6D2D782DFD010314FD
:100AE400FD0DA630F100F10B752D00007408F10026
:100AF4007107F2007208F400F408031D822D832D9F
:100B0400642D842D852D862D872D882DFD010314BC
:100B1400FD0DAC30F100F10B8D2DE62DFD01A8305B
:100B2400F100F10B932DF4010314F40DF408031DEB
:100B34009C2D9D2D9F2DBF2DBF2D70087405031D69
:100B4400A42DA52DAB2DFD01A630F100F10BA82D90
:100B5400B32DFD010314FD0DA630F100F10BB02DF2
:100B640000007408F1007107F2007208F400F40840
:100B7400031DBD2DBE2D9F2DBF2DC02DC12DC22DFA
:100B8400C32DFD010314FD0DAC30F100F10BC82D94
:100B9400E62DE62D7308013A0319E92B033A0319EC
:100BA400292C013A0319692C073A0319A42C013A98
:100BB4000319DF2C033A03191A2D013A0319552D91
:100BC4000F3A0319902DE62D0800F300F401F20109
:100BD400E32FEC2D831203138719F12DF22DEC2D45
:100BE400F32DA930F000F00BF52DF82D5630F00060
:100BF400F00BFA2D0000F5010314F50DF508031DA3
:100C0400042E052E072E242E242E83120313871D53
:100C14000C2E0D2E132E7508F0007008F404132EFC
:100C2400132EA630F000F00B152E00007508F0000E
:100C34007007F1007108F500F508031D222E232E1C
:100C4400072E242E5630F000F00B262E0000FD2F28
:100C54002B2E831203138718302E312E2B2E322E77
:100C6400A930F000F00B342E372E5630F000F00B84
:100C7400392E0000F5010314F50DF508031D432E6C
:100C8400442E462E632E632E83120313871C4B2E91
:100C94004C2E522E7508F0007008F404522E522E79
:100CA400A630F000F00B542E00007508F000700719
:100CB400F1007108F500F508031D612E622E462E21
:100CC400632E5630F000F00B652E0000FD2FF4016A
:100CD4006C2E6C2EFD08031D702E712E6C2E722E40
:100CE400A930F000F00B742E772E5630F000F00B84
:100CF400792E0000F5010314F50DF508031D832E6C
:100D0400842E862EA12EA12E7D08031D8A2E902EC0
:100D14007508F0007008F404902E902EA630F000B0
:100D2400F00B922E00007508F0007007F1007108B6
:100D3400F500F508031D9F2EA02E862EA12E5630F9
:100D4400F000F00BA32E0000FD2FA92EA92EFD0804
:100D5400031DAD2EAE2EA92EAF2EA930F000F00B40
:100D6400B12EB42E5630F000F00BB62E0000F50173
:100D74000314F50DF508031DC02EC12EC32EE02E5D
:100D8400E02E7D08013A031DC82EC92ECF2E75080A
:100D9400F0007008F404CF2ECF2EA630F000F00B34
:100DA400D12E00007508F0007007F1007108F500FD
:100DB400F508031DDE2EDF2EC32EE02E5630F00084
:100DC400F00BE22E0000FD2FE82EE82EFD08031D97
:100DD400EC2EED2EE82EEE2EA930F000F00BF02EC6
:100DE400F32E5630F000F00BF52E0000F50103143D
:100DF400F50DF508031DFF2E002F022F1F2F1F2FA7
:100E04007D08013A031D072F082F0E2F7508F000E7
:100E14007008F4040E2F0E2FA630F000F00B102FE4
:100E240000007508F0007007F1007108F500F5087E
:100E3400031D1D2F1E2F022F1F2F5630F000F00B05
:100E4400212F0000FD2F272F272FFD08031D2B2FF7
:100E54002C2F272F2D2FA930F000F00B2F2F322FFE
:100E64005630F000F00B342F0000F5010314F50D9B
:100E7400F508031D3E2F3F2F412F5E2F5E2F7D0867
:100E8400013A031D462F472F4D2F7508F0007008B7
:100E9400F4044D2F4D2FA630F000F00B4F2F00001F
:100EA4007508F0007007F1007108F500F508031DDE
:100EB4005C2F5D2F412F5E2F5630F000F00B602F1A
:100EC4000000FD2F662F662FFD08031D6A2F6B2F70
:100ED400662F6C2FA930F000F00B6E2F712F563057
:100EE400F000F00B732F0000F5010314F50DF50865
:100EF400031D7D2F7E2F802F9D2F9D2F7D08013A6E
:100F0400031D852F862F8C2F7508F0007008F404BC
:100F14008C2F8C2FA630F000F00B8E2F000075085C
:100F2400F0007007F1007108F500F508031D9B2F10
:100F34009C2F802F9D2F5630F000F00B9F2F000028
:100F4400FD2FA52FA52FFD08031DA92FAA2FA52F1F
:100F5400AB2FA930F000F00BAD2FB02F5630F000BE
:100F6400F00BB22F0000F5010314F50DF508031D75
:100F7400BC2FBD2FBF2FDC2FDC2F7D08013A031DB2
:100F8400C42FC52FCB2F7508F0007008F404CB2FA5
:100F9400CB2FA630F000F00BCD2F00007508F00029
:100FA4007007F1007108F500F508031DDA2FDB2F37
:100FB400BF2FDC2F5630F000F00BDE2F0000FD2F8A
:100FC400FD2F7308013A0319EC2D033A03192B2E54
:100FD400013A0319692E073A0319A92E013A031994
:100FE400E82E033A0319272F013A0319662F0F3A03
:0C0FF4000319A52FFD2F7408FF2F080023
:02400E00323F3F
:00000001FF
