:100000000A128A11682D00308A000408840A8207C7
:10001000003453344C34413456344534203449345C
:100020006E347434653472346E3461346C3400343C
:1000300043347934743472346F346E342034503431
:0800400052343234373400342D
:100AD000A001A101A201A301A40183010A128A11AC
:100AE0005D2EF000732D831203130C1E782D792DCB
:100AF000732D7A2D7008990008007E2D8312031340
:100B00008C1E832D842D7E2D852D1A08F0007008F3
:100B1000F10071088B2D080001300A128A11E225BC
:100B20000A128A110030F3000030F2000230F100A6
:100B30005830F0000A128A112D260A128A11080074
:100B4000FA0010307A020318A62DA72DAF2D7A08CF
:100B5000803E0A128A11E2250A128A11BC2D7A08F7
:100B6000EC3EF9007908FA007A08C03E0A128A11B0
:100B7000E2250A128A11BC2D0800F8008312031323
:100B800007167808860087160030F3000030F20060
:100B90000030F1003230F0000A128A112D260A12BC
:100BA0008A118312031387120030F3000030F20021
:100BB0000030F1003230F0000A128A112D260A129C
:100BC0008A110800F80083120313071278088600C0
:100BD00087160030F3000030F2000030F1003230B0
:100BE000F0000A128A112D260A128A1183120313A9
:100BF00087120030F3000030F2000030F100323094
:100C0000F0000A128A112D260A128A110800FA0031
:100C10001A2E7A0884000A128A1103200A128A11F5
:100C20000A128A11BD250A128A110130F9007908C9
:100C3000FA071A2E7A08031D1E2E2C2E7A0884001D
:100C40000A128A1103200A128A110038031D292E64
:100C50002A2E092E2C2E2C2E0800730872047104E3
:100C60007004031D342E352E372E5C2E5C2E013081
:100C7000F4000030F5000030F6000030F700740892
:100C8000F0027508031C750F462E472EF1027608F8
:100C9000031C760F4C2E4D2EF2027708031C770FA3
:100CA000522E532EF3027308720471047004031D54
:100CB0005A2E5B2E372E5C2E0800FD01831603137F
:100CC000860187011C30850006309F0001300A1222
:100CD0008A11E2250A128A1102300A128A11E225CB
:100CE0000A128A1106300A128A11E2250A128A11A2
:100CF0000C300A128A11E2250A128A1138300A12BF
:100D00008A11E2250A128A11831203138510051035
:100D1000851286010A128A118C250A128A11003066
:100D20000A128A11A0250A128A1110300A128A1199
:100D300007260A128A1114300A128A11A0250A12F3
:100D40008A1101300A128A1107260A128A118316A3
:100D50000313071387178130990018159816181375
:100D6000831203131813181698171A08FB007B0830
:100D7000FC001A08FB007B08FC00BE2E0A128A1138
:100D80007D250A128A11FB007B08FD00E72F0A125D
:100D90008A117D250A128A11FB007B08FD00FD08DF
:100DA000031DD32ED42ED82E831203138510DC2ED0
:100DB000831203138514DC2E61300A128A11712507
:100DC0000A128A11BE2E0A128A117D250A128A1170
:100DD000FB007B08FD00FD08031DEF2EF02EF42E16
:100DE000831203130510F82E831203130514F82E33
:100DF00061300A128A1171250A128A11BE2E0A1256
:100E00008A117D250A128A11FB007B08FD00FD086E
:100E1000031D0B2F0C2F102F831203138512142F79
:100E2000831203138516142F61300A128A1171255B
:100E30000A128A11BE2E0A128A117D250A128A11FF
:100E4000FB007B08FD00642F83120313051D292F6F
:100E50002A2F312F01300A128A1171250A128A11A4
:100E6000BE2E00300A128A1171250A128A11BE2E76
:100E7000BE2E83120313851D3E2F3F2F462F0130B8
:100E80000A128A1171250A128A11BE2E00300A1226
:100E90008A1171250A128A11BE2EBE2E83120313E7
:100EA000051E532F542F5B2F01300A128A11712512
:100EB0000A128A11BE2E00300A128A1171250A12F6
:100EC0008A11BE2EBE2EBE2E7D08013A0319242F94
:100ED000033A0319392F013A03194E2FBE2EBE2EA5
:100EE0000A128A117D250A128A11FB007B08FD0077
:100EF0000A128A118C250A128A1183120313A00187
:100F0000A101A201A30161300A128A1171250A12FE
:100F10008A11BE2E0A128A117D250A128A11FB003F
:100F20007B08FD00831203132108803AFF00803004
:100F30007F02031D9D2F10302002031CA02FA12F24
:100F4000C32F831203132208C03E0A128A11E2251E
:100F50000A128A117D080A128A11BD250A128A1105
:100F60000130FB007B08FD07013083120313A20749
:100F70000318A30A0030A3070130A0070318A10A31
:100F80000030A107DF2F831203132008803E0A12CE
:100F90008A11E2250A128A117D080A128A11BD25DA
:100FA0000A128A110130FB007B08FD070130831211
:100FB0000313A0070318A10A0030A107DF2F613037
:100FC0000A128A1171250A128A11BE2EBE2E7D08C0
:100FD000013A0319C72E033A0319E32E013A031904
:100FE000FF2E073A03191B2F013A0319702F033AFA
:100FF00003198A2FBE2EBE2EBE2E0A128A11002879
:02400E00323F3F
:00000001FF
