:100000000A128A11792800308A000408840A8207BB
:10001000003453344C344134563445342034553450
:100020004134523454345F343134003443347934FD
:10003000743472346F346E34203450345234323469
:04004000373400341D
:1000F200FD01A001A101A201A30183010A128A113B
:10010200E52901300A128A11B3200A128A1100303D
:10011200F3000030F2000230F1005830F0000A1211
:100122008A1123210A128A110800FA0010307A0279
:1001320003189C289D28A5287A08803E0A128A1155
:10014200B3200A128A11B2287A08EC3EF900790823
:10015200FA007A08C03E0A128A11B3200A128A11E2
:10016200B2280800F80083120313071278088600E9
:1001720087160030F3000030F2000030F100323018
:10018200F0000A128A1123210A128A118312031320
:1001920087120030F3000030F2000030F1003230FC
:1001A200F0000A128A1123210A128A110800F800AB
:1001B2008312031307167808860087160030F300AF
:1001C2000030F2000030F1003230F0000A128A11E1
:1001D20023210A128A118312031387120030F300BB
:1001E2000030F2000030F1003230F0000A128A11C1
:1001F20023210A128A110800FA0010297A088400C1
:100202000A128A1103200A128A110A128A11D820AC
:100212000A128A110130F9007908FA0710297A08BE
:10022200031D142922297A0884000A128A11032044
:100232000A128A110038031D1F292029FF282229AA
:10024200222908007308720471047004031D2A290C
:100252002B292D29522952290130F4000030F500B2
:100262000030F6000030F7007408F0027508031C35
:10027200750F3C293D29F1027608031C760F4229AD
:100282004329F2027708031C770F48294929F30210
:100292007308720471047004031D502951292D2919
:1002A20052290800F000CA29831203130715831686
:1002B200031307118312031387158316031387157C
:1002C200E4298312031307148316031307108312FE
:1002D20003138714831603138714E429FD010314FF
:1002E200FD0D0310003003180130FD00FD01031461
:1002F200FD0DFD010314FD0DE429FD010314FD0DA7
:100302000310003003180130FD00FD010314FD0D40
:10031200FD010314FD0DE429FD010314FD0D03107D
:10032200003003180130FD00FD010314FD0DFD0135
:100332000314FD0DE429FD010314FD0D031000302B
:1003420003180130FD00FD010314FD0DFD0103142E
:10035200FD0DE429FD010314FD0D03100030031807
:100362000130FD00FD010314FD0DFD010314FD0D1F
:10037200E429FD010314FD0D0310003003180130C0
:10038200FD00FD010314FD0DFD010314FD0DE42923
:10039200E4297008013A03195529033A031962291D
:1003A200013A03196F29073A03197E29013A031901
:1003B2008D29033A03199C29013A0319AB290F3AF3
:1003C2000319BA29E4290800031000300318013088
:1003D200FC0083160313860187011C30850006305A
:1003E2009F0001300A128A11B3200A128A110230C8
:1003F2000A128A11B3200A128A1106300A128A11CD
:10040200B3200A128A110C300A128A11B3200A127E
:100412008A1138300A128A11B3200A128A11831201
:10042200031385100510851286010A128A11822093
:100432000A128A1100300A128A1196200A128A11AF
:100442000E300A128A11FD200A128A1114300A1281
:100452008A1196200A128A1101300A128A11FD208D
:100462000A128A1101300A128A1153210A128A11C0
:100472003A2A01300A128A11AB230A128A11FB00AE
:100482007B08FC00922B01300A128A11AB230A125C
:100492008A11FB007B08FC00FC08031D512A522A2A
:1004A200562A8312031385105A2A831203138514C2
:1004B2005A2A6130FB007B08F00001300A128A11CF
:1004C200D0250A128A113A2A01300A128A11AB2364
:1004D2000A128A11FB007B08FC00FC08031D722A29
:1004E200732A772A8312031305107B2A83120313BC
:1004F20005147B2A6130FB007B08F00001300A12F0
:100502008A11D0250A128A113A2A01300A128A1156
:10051200AB230A128A11FB007B08FC00FC08031DB6
:10052200932A942A982A8312031385129C2A8312EF
:10053200031385169C2A6130FB007B08F000013012
:100542000A128A11D0250A128A113A2A01300A1295
:100552008A11AB230A128A11FB007B08FC00092BCB
:1005620083120313051DB62AB72AC12AF001031408
:10057200F00D01300A128A11D0250A128A113A2A84
:100582000310003003180130F00001300A128A1102
:10059200D0250A128A113A2A3A2A83120313851D98
:1005A200D32AD42ADE2AF0010314F00D01300A12F4
:1005B2008A11D0250A128A113A2A03100030031830
:1005C2000130F00001300A128A11D0250A128A1174
:1005D2003A2A3A2A83120313051EF02AF12AFB2A29
:1005E200F0010314F00D01300A128A11D0250A120B
:1005F2008A113A2A0310003003180130F00001304A
:100602000A128A11D0250A128A113A2A3A2A3A2A59
:100612007C08013A0319B12A033A0319CE2A013A96
:100622000319EB2A3A2A3A2A01300A128A11AB2319
:100632000A128A11FB007B08FC000A128A1182202E
:100642000A128A11003083120313A0000030A100A5
:100652000030A2000030A3006130FB007B08F000F4
:1006620001300A128A11D0250A128A113A2A01305F
:100672000A128A11AB230A128A11FB007B08FC00C2
:10068200831203132108803AFF0080307F02031D8A
:100692004C2B10302002031C4F2B502B6E2B83123D
:1006A20003132208C03E0A128A11B3200A128A11C9
:1006B2007C080A128A11D8200A128A110130831288
:1006C2000313A2070318A30A0030A3070130A007EF
:1006D2000318A10A0030A107862B831203132008F6
:1006E200803E0A128A11B3200A128A117C080A1269
:1006F2008A11D8200A128A11013083120313A0072B
:100702000318A10A0030A107862B6130FB007B0889
:10071200F00001300A128A11D0250A128A113A2AEF
:100722003A2A7C08013A0319442A033A0319652A32
:10073200013A0319862A073A0319A72A013A03192B
:10074200152B033A0319382B3A2A3A2A3A2A0A1263
:100752008A110028F3000310003003180130F4005E
:100762000310003003180130F200B32DB82B8312AE
:1007720003138719BD2BBE2BB82BBF2BA930F0005A
:10078200F00BC12BC42B5630F000F00BC62B6400CB
:10079200F5010314F50DF508031DD02BD12BD32B36
:1007A200F02BF02B83120313871DD82BD92BDF2BB1
:1007B2007508F0007008F404DF2BDF2BA630F00080
:1007C200F00BE12B64007508F0007007F10071086E
:1007D200F500F508031DEE2BEF2BD32BF02B563033
:1007E200F000F00BF22B6400CD2DF72B83120313D4
:1007F2008718FC2BFD2BF72BFE2BA930F000F00BFA
:10080200002C032C5630F000F00B052C6400F5018F
:100812000314F50DF508031D0F2C102C122C2F2C90
:100822002F2C83120313871C172C182C1E2C7508CF
:10083200F0007008F4041E2C1E2CA630F000F00B01
:10084200202C64007508F0007007F1007108F500B3
:10085200F508031D2D2C2E2C122C2F2C5630F000B7
:10086200F00B312C6400CD2D031000300318013041
:10087200F4003C2C3C2CFD08031D402C412C3C2C4C
:10088200422CA930F000F00B442C472C5630F000DB
:10089200F00B492C6400F5010314F50DF508031D56
:1008A200532C542C562C712C712C7D08031D5A2C60
:1008B200602C7508F0007008F404602C602CA630DF
:1008C200F000F00B622C64007508F0007007F10074
:1008D2007108F500F508031D6F2C702C562C712C35
:1008E2005630F000F00B732C6400CD2D792C792C4E
:1008F200FD08031D7D2C7E2C792C7F2CA930F00065
:10090200F00B812C842C5630F000F00B862C640006
:10091200F5010314F50DF508031D902C912C932C71
:10092200B02CB02C7D08013A031D982C992C9F2CD9
:100932007508F0007008F4049F2C9F2CA630F0007C
:10094200F00BA12C64007508F0007007F10071082B
:10095200F500F508031DAE2CAF2C932CB02C5630AD
:10096200F000F00BB22C6400CD2DB82CB82CFD0891
:10097200031DBC2CBD2CB82CBE2CA930F000F00BF2
:10098200C02CC32C5630F000F00BC52C6400F501CE
:100992000314F50DF508031DCF2CD02CD22CEF2C0F
:1009A200EF2C7D08013A031DD72CD82CDE2C7508BC
:1009B200F0007008F404DE2CDE2CA630F000F00B00
:1009C200E02C64007508F0007007F1007108F50072
:1009D200F508031DED2CEE2CD22CEF2C5630F00036
:1009E200F00BF12C6400CD2DF72CF72CFD08031D24
:1009F200FB2CFC2CF72CFD2CA930F000F00BFF2C6B
:100A0200022D5630F000F00B042D6400F5010314A2
:100A1200F50DF508031D0E2D0F2D112D2E2D2E2D4A
:100A22007D08013A031D162D172D1D2D7508F000A6
:100A32007008F4041D2D1D2DA630F000F00B1F2DA3
:100A420064007508F0007007F1007108F500F50800
:100A5200031D2C2D2D2D112D2E2D5630F000F00BB7
:100A6200302D6400CD2D362D362DFD08031D3A2D77
:100A72003B2D362D3C2DA930F000F00B3E2D412DA3
:100A82005630F000F00B432D6400F5010314F50D10
:100A9200F508031D4D2D4E2D502D6D2D6D2D7D080C
:100AA200013A031D552D562D5C2D7508F000700876
:100AB200F4045C2D5C2DA630F000F00B5E2D64007A
:100AC2007508F0007007F1007108F500F508031DC4
:100AD2006B2D6C2D502D6D2D5630F000F00B6F2DBF
:100AE2006400CD2D752D752DFD08031D792D7A2DF0
:100AF200752D7B2DA930F000F00B7D2D802D563009
:100B0200F000F00B822D6400F5010314F50DF508D9
:100B1200031D8C2D8D2D8F2DAC2DAC2D7D08013A12
:100B2200031D942D952D9B2D7508F0007008F4047B
:100B32009B2D9B2DA630F000F00B9D2D64007508B7
:100B4200F0007007F1007108F500F508031DAA2DE9
:100B5200AB2D8F2DAC2D5630F000F00BAE2D640076
:100B6200CD2DCD2D7308013A0319B82B033A031981
:100B7200F72B013A0319352C073A0319792C013A5C
:100B82000319B82C033A0319F72C013A0319362D2D
:100B92000F3A0319752DCD2D7408CF2D0800F300DF
:100BA200E52F831203130711A830F100F10BD72DA3
:100BB200F4010314F40DF408031DE02DE12DE32DDF
:100BC200062E062E70087405031DE82DE92DF12D61
:100BD200831203130711A630F100F10BEE2DFA2D4B
:100BE200831203130715A630F100F10BF62D6400F2
:100BF200FA2D7408F1007107F2007208F400F4088B
:100C0200031D042E052EE32D062E072E082E092E77
:100C12000A2E831203130715AC30F100F10B0F2ECD
:100C2200FF2F831203130710A830F100F10B172EC8
:100C3200F4010314F40DF408031D202E212E232E9B
:100C4200462E462E70087405031D282E292E312E9D
:100C5200831203130710A630F100F10B2E2E3A2E49
:100C6200831203130714A630F100F10B362E640031
:100C72003A2E7408F1007107F2007208F400F408C9
:100C8200031D442E452E232E462E472E482E492E36
:100C92004A2E831203130714AC30F100F10B4F2ECE
:100CA200FF2F0310003003180130FD00A830F100BF
:100CB200F10B592EF4010314F40DF408031D622EF6
:100CC200632E652E892E892E70087405031D6A2EE7
:100CD2006B2E752E0310003003180130FD00A63074
:100CE200F100F10B722E7D2EFD010314FD0DA630D5
:100CF200F100F10B7A2E64007408F1007107F20022
:100D02007208F400F408031D872E882E652E892EA2
:100D12008A2E8B2E8C2E8D2EFD010314FD0DAC30F0
:100D2200F100F10B922EFF2F031000300318013057
:100D3200FD00A830F100F10B9C2EF4010314F40D18
:100D4200F408031DA52EA62EA82ECC2ECC2E70089C
:100D52007405031DAD2EAE2EB82E031000300318FD
:100D62000130FD00A630F100F10BB52EC02EFD01C1
:100D72000314FD0DA630F100F10BBD2E64007408C2
:100D8200F1007107F2007208F400F408031DCA2E84
:100D9200CB2EA82ECC2ECD2ECE2ECF2ED02EFD0198
:100DA2000314FD0DAC30F100F10BD52EFF2F031013
:100DB200003003180130FD00A830F100F10BDF2EE6
:100DC200F4010314F40DF408031DE82EE92EEB2EB2
:100DD2000F2F0F2F70087405031DF02EF12EFB2E1E
:100DE2000310003003180130FD00A630F100F10BB2
:100DF200F82E032FFD010314FD0DA630F100F10BB7
:100E0200002F64007408F1007107F2007208F40008
:100E1200F408031D0D2F0E2FEB2E0F2F102F112F65
:100E2200122F132FFD010314FD0DAC30F100F10B55
:100E3200182FFF2F0310003003180130FD00A830D7
:100E4200F100F10B222FF4010314F40DF408031D39
:100E52002B2F2C2F2E2F522F522F70087405031D6B
:100E6200332F342F3E2F0310003003180130FD00C2
:100E7200A630F100F10B3B2F462FFD010314FD0DAF
:100E8200A630F100F10B432F64007408F1007107E2
:100E9200F2007208F400F408031D502F512F2E2F78
:100EA200522F532F542F552F562FFD010314FD0D92
:100EB200AC30F100F10B5B2FFF2F03100030031851
:100EC2000130FD00A830F100F10B652FF40103148D
:100ED200F40DF408031D6E2F6F2F712F952F952F90
:100EE20070087405031D762F772F812F03100030B1
:100EF20003180130FD00A630F100F10B7E2F892F7F
:100F0200FD010314FD0DA630F100F10B862F6400E4
:100F12007408F1007107F2007208F400F408031D6E
:100F2200932F942F712F952F962F972F982F992FBC
:100F3200FD010314FD0DAC30F100F10B9E2FFF2FCC
:100F42000310003003180130FD00A830F100F10B4E
:100F5200A82FF4010314F40DF408031DB12FB22FCE
:100F6200B42FD82FD82F70087405031DB92FBA2FAC
:100F7200C42F0310003003180130FD00A630F10029
:100F8200F10BC12FCC2FFD010314FD0DA630F10092
:100F9200F10BC92F64007408F1007107F2007208A6
:100FA200F400F408031DD62FD72FB42FD82FD92F32
:100FB200DA2FDB2FDC2FFD010314FD0DAC30F10025
:100FC200F10BE12FFF2FFF2F7308013A0319D22DE6
:100FD200033A0319122E013A0319522E073A031942
:100FE200952E013A0319D82E033A03191B2F013A01
:0E0FF20003195E2F0F3A0319A12FFF2F0800DD
:02400E00323F3F
:00000001FF
