:100000000A128A11602D00308A000408840A8207CF
:10001000003453344C34413456344534203449345C
:100020006E347434653472346E3461346C3400343C
:1000300043347934743472346F346E342034503431
:0800400052343234373400342D
:100AC000A001A101A201A301A40183010A128A11BC
:100AD000552EF0006B2D831203130C1E702D712DFB
:100AE0006B2D722D700899000800762D8312031368
:100AF0008C1E7B2D7C2D762D7D2D1A08F000700824
:100B0000F1007108832D080001300A128A11B52501
:100B10000A128A110030F3000030F2000230F100B6
:100B20005830F0000A128A1125260A128A1108008C
:100B3000FA0010307A0203189E2D9F2DA72D7A08F7
:100B4000803E0A128A11B5250A128A11B42D7A083C
:100B5000EC3EF9007908FA007A08C03E0A128A11C0
:100B6000B5250A128A11B42D0800F8008312031368
:100B700007127808860087160030F3000030F20074
:100B80000030F1003230F0000A128A1125260A12D4
:100B90008A118312031387120030F3000030F20031
:100BA0000030F1003230F0000A128A1125260A12B4
:100BB0008A110800F80083120313071678088600CC
:100BC00087160030F3000030F2000030F1003230C0
:100BD000F0000A128A1125260A128A1183120313C1
:100BE00087120030F3000030F2000030F1003230A4
:100BF000F0000A128A1125260A128A110800FA004A
:100C0000122E7A0884000A128A1103200A128A110D
:100C10000A128A11DA250A128A110130F9007908BC
:100C2000FA07122E7A08031D162E242E7A08840045
:100C30000A128A1103200A128A110038031D212E7C
:100C4000222E012E242E242E080073087204710413
:100C50007004031D2C2E2D2E2F2E542E542E0130B9
:100C6000F4000030F5000030F6000030F7007408A2
:100C7000F0027508031C750F3E2E3F2EF102760818
:100C8000031C760F442E452EF2027708031C770FC3
:100C90004A2E4B2EF3027308720471047004031D74
:100CA000522E532E2F2E542E0800031000300318FE
:100CB0000130FD0083160313860187011C30850077
:100CC00006309F0001300A128A11B5250A128A11D6
:100CD00002300A128A11B5250A128A1106300A1248
:100CE0008A11B5250A128A110C300A128A11B5250B
:100CF0000A128A1138300A128A11B5250A128A118D
:100D00008312031385100510851286010A128A11B9
:100D100084250A128A1100300A128A1198250A12B3
:100D20008A1110300A128A11FF250A128A11143012
:100D30000A128A1198250A128A1101300A128A11A0
:100D4000FF250A128A1183160313071387178130B0
:100D500099001815981618138312031318131816F0
:100D600098171A08FB007B08FC001A08FB007B0898
:100D7000FC00BA2E0A128A1175250A128A11FB008C
:100D80007B08FD00E72F0A128A1175250A128A11C5
:100D9000FB007B08FD00FD08031DCF2ED02ED42EB6
:100DA000831203138510D82E831203138514D82EB3
:100DB00061300A128A1169250A128A11BA2E0A12A2
:100DC0008A1175250A128A11FB007B08FD00FD08B7
:100DD000031DEB2EEC2EF02E831203130510F42EC0
:100DE000831203130514F42E61300A128A11692547
:100DF0000A128A11BA2E0A128A1175250A128A114C
:100E0000FB007B08FD00FD08031D072F082F0C2F9A
:100E1000831203138512102F831203138516102FCC
:100E200061300A128A1169250A128A11BA2E0A1231
:100E30008A1175250A128A11FB007B08FD00602FBC
:100E400083120313051D252F262F2D2F01300A1283
:100E50008A1169250A128A11BA2E00300A128A11E3
:100E600069250A128A11BA2EBA2E83120313851D20
:100E70003A2F3B2F422F01300A128A1169250A129C
:100E80008A11BA2E00300A128A1169250A128A11B3
:100E9000BA2EBA2E83120313051E4F2F502F572F31
:100EA00001300A128A1169250A128A11BA2E0030FD
:100EB0000A128A1169250A128A11BA2EBA2EBA2E7E
:100EC0007D08013A0319202F033A0319352F013AFF
:100ED00003194A2FBA2EBA2E0A128A1175250A1240
:100EE0008A11FB007B08FD000A128A1184250A1270
:100EF0008A11003083120313A0000030A1000030DB
:100F0000A2000030A30061300A128A1169250A127A
:100F10008A11BA2E0A128A1175250A128A11FB004B
:100F20007B08FD00831203132108803AFF00803004
:100F30007F02031D9D2F10302002031CA02FA12F24
:100F4000C32F831203132208C03E0A128A11B5254B
:100F50000A128A117D080A128A11DA250A128A11E8
:100F60000130FB007B08FD07013083120313A20749
:100F70000318A30A0030A3070130A0070318A10A31
:100F80000030A107DF2F831203132008803E0A12CE
:100F90008A11B5250A128A117D080A128A11DA25EA
:100FA0000A128A110130FB007B08FD070130831211
:100FB0000313A0070318A10A0030A107DF2F613037
:100FC0000A128A1169250A128A11BA2EBA2E7D08D0
:100FD000013A0319C32E033A0319DF2E013A03190C
:100FE000FB2E073A0319172F013A03196C2F033A06
:100FF00003198A2FBA2EBA2EBA2E0A128A11002885
:02400E00323F3F
:00000001FF
