:100000007C3084000730FE002B30FF001120800080
:10001000840A04087D3A03191528FF0A0319FE0A09
:1000200006287E088A007F08820083177D308400BE
:100030007E300A128A1122200A128A1183010A12C2
:100040008A112A2864008001840A040603190034F6
:1000500004062328A5010314A50D0310003003187E
:100060000130A200A4010314A40D031000300318F2
:100070000130A100A8010314A80D031000300318DB
:100080000130A300A7010314A70DA9010314A90DB2
:10009000A6010314A60D03108316031300300318E2
:1000A00001308600031000300318013087001C3037
:1000B000850006309F0001300A128A11B2260A120A
:1000C0008A1102300A128A11B2260A128A110630E7
:1000D0000A128A11B2260A128A110C300A128A11E7
:1000E000B2260A128A1138300A128A11B2260A126E
:1000F0008A11831203138510051085120310003036
:100100000318013086000A128A115B260A128A112E
:1001100000300A128A1171260A128A1111300A124D
:100120008A11D8260A128A1114300A128A117126ED
:100130000A128A1101300A128A11D8260A128A116B
:100140008316031307138717813099001815981623
:100150001813831203131813181698171A08A000FF
:100160001A08A0008510051085120519B828B928AD
:10017000D028A508031DBD28CF2803100030031880
:100180000130A50022088313003A00300319013022
:10019000A20022080A128A112C270A128A11D828D2
:1001A000A508031DD428D528D828A5010314A50D1A
:1001B000831203138519DD28DE28F528A408031D02
:1001C000E228F4280310003003180130A4002108AD
:1001D0008313003A003003190130A10021080A12EC
:1001E0008A1194270A128A11FD28A408031DF928F0
:1001F000FA28FD28A4010314A40D83120313051A81
:10020000022903291A29A808031D072919290310FF
:10021000003003180130A80023088313003A00308F
:1002200003190130A30023080A128A1160270A1259
:100230008A112229A808031D1E291F292229A80185
:100240000314A80D04300A128A114D260A128A11CD
:1002500001300A128A114D260A128A110A128A11D5
:1002600040260A128A1183120313AA002A08FC00EE
:10027000FC08031D3C293D294929A708031D4129E4
:1002800048290310003003180130A700023085060A
:100290005129A708031D4D294E295129A7010314EF
:1002A000A70D04300A128A114D260A128A11023053
:1002B0000A128A114D260A128A110A128A11402640
:1002C0000A128A1183120313AA002A08FC00FC08F0
:1002D000031D6B296C297829A908031D702977292A
:1002E0000310003003180130A90001308506802971
:1002F000A908031D7C297D298029A9010314A90DC2
:1003000004300A128A114D260A128A1103300A1289
:100310008A114D260A128A110A128A1140260A12DF
:100320008A1183120313AA002A08FC00FC08031D8B
:100330009A299B29A729A608031D9F29A6290310EE
:10034000003003180130A60020308506AF29A6082A
:10035000031DAB29AC29AF29A6010314A60DB528AE
:060360000A128A110028B8
:100C8000412E831203138C1E462E472E412E1A0826
:100C9000AD002D0883134C2E080083120313AD0002
:100CA000512E831203130C1E562E572E512E2D0833
:100CB00083139900080001300A128A11B2260A1221
:100CC0008A11831203130030B1000030B0000230EB
:100CD000AF005830AE000A128A11C8270A128A11D2
:100CE000080083120313AB0010302B020318792E77
:100CF0007A2E832E2B088313803E0A128A11B22685
:100D00000A128A118E2E2B088313EC3EAB002B089F
:100D1000C03E0A128A11B2260A128A110800AD00DA
:100D200007162D08860087160030B1000030B0008D
:100D30000030AF003230AE000A128A11C8270A1202
:100D40008A118312031387120030B1000030B00003
:100D50000030AF003230AE000A128A11C8270A12E2
:100D60008A11080083120313AC0007122C088313A6
:100D7000860087160030B1000030B0000030AF00B0
:100D80003230AE000A128A11C8270A128A11831261
:100D9000031387120030B1000030B0000030AF0004
:100DA0003230AE000A128A11C8270A128A110800CE
:100DB00083120313AB00ED2E2B080A128A110927A8
:100DC0000A128A110A128A118F260A128A11013018
:100DD00083120313AC002C08AB0783120313AB0878
:100DE000031DF32EFF2E2B0883130A128A110927E5
:100DF0000A128A110038031DFE2EFF2EDC2E080079
:100E0000FE00FE1F082F83137E18831700080800BA
:100E10000408FE0007308A007E08820700344D3443
:100E200041345334543445345234203449346E34CC
:100E30007434653472346E3461346C340034433449
:100E40007934743472346F346E3420345034523404
:100E50003234373400340134AB00AB08031D312F7A
:100E6000322F492F01300A128A114D260A128A1197
:100E700000300A128A114D260A128A110A128A11AA
:100E800040260A128A1183120313AC002C08FC00BE
:100E90005F2F01300A128A114D260A128A11013081
:100EA0000A128A114D260A128A110A128A11402644
:100EB0000A128A1183120313AC002C08FC000800EC
:100EC000AB00AB08031D652F662F7D2F03300A1280
:100ED0008A114D260A128A1100300A128A114D26F3
:100EE0000A128A110A128A1140260A128A118312E2
:100EF0000313AC002C08FC00932F03300A128A1154
:100F00004D260A128A1101300A128A114D260A1240
:100F10008A110A128A1140260A128A1183120313B7
:100F2000AC002C08FC000800AB00AB08031D992F97
:100F30009A2FB12F02300A128A114D260A128A11F5
:100F400000300A128A114D260A128A110A128A11D9
:100F500040260A128A1183120313AC002C08FC00ED
:100F6000C72F02300A128A114D260A128A11013047
:100F70000A128A114D260A128A110A128A11402673
:100F80000A128A1183120313AC002C08FC0008001B
:100F9000310830042F042E04031DCF2FD02FD12F62
:100FA000F52F0130B2000030B3000030B400003043
:100FB000B5003208AE023308031C330FE02FE12FD7
:100FC000AF023408031C340FE62FE72FB0023508B8
:100FD000031C350FEC2FED2FB102310830042F0424
:0C0FE0002E04031DF42FF52FD12F080064
:02400E00323F3F
:00000001FF
