:100000006B30840070300A128A110B200A128A1198
:100010000A128A11132864008001840A0406031955
:10002000003404060C280310003003180130F100DE
:1000300003108316031300300318013086000310E9
:1000400000300318013087001C30850006309F0007
:1000500001300A128A1158270A128A1102300A1234
:100060008A1158270A128A1106300A128A11582753
:100070000A128A110C300A128A1158270A128A11A0
:1000800038300A128A1158270A128A118312031370
:10009000851005108512031000300318013086000A
:1000A0000A128A11DD270A128A1100300A128A11F7
:1000B000C3270A128A1110300A128A11A2270A12C3
:1000C0008A1114300A128A11C3270A128A110130C8
:1000D0000A128A11A2270A128A1183160313071320
:1000E0008717813099001815981618138312031377
:1000F0001813181698171A08F0001A08F0000A12B8
:100100008A11F1270A128A11F10091290A128A1123
:10011000F1270A128A11F100F108031D9028912895
:1001200095288312031385109828831203138514CE
:1001300061300A128A11F7260A128A11A5290A12B9
:100140008A11F1270A128A11F100F108031DA9286A
:10015000AA28AE28831203130510B12883120313B3
:10016000051461300A128A11F7260A128A11A5298C
:100170000A128A11F1270A128A11F100F108031DEF
:10018000C228C328C728831203138512CA288312E2
:100190000313851661300A128A11F7260A128A1192
:1001A000A5290A128A11F1270A128A11F1001429CD
:1001B00083120313051DDD28DE28E52801300A120D
:1001C0008A11F7260A128A11EB2800300A128A11C6
:1001D000F7260A128A111F2983120313851DF1289D
:1001E000F228F92801300A128A11F7260A128A1118
:1001F000FF2800300A128A11F7260A128A111F29D5
:1002000083120313051E052906290D2901300A1240
:100210008A11F7260A128A11132900300A128A114C
:10022000F7260A128A111F297108013A0319D828E2
:10023000033A0319EC28013A031900291F29A529BB
:100240000A128A11F1270A128A11F1000A128A1180
:10025000DD270A128A11003083120313EB000030ED
:10026000EC000030ED000030EE0061300A128A111F
:10027000F7260A128A11A5290A128A11F1270A12F1
:100280008A11F100831203136C08803AF200803067
:100290007202031D4D2910306B02031C5029512995
:1002A00071296D08C03E0A128A1158270A128A1154
:1002B00071080A128A117D270A128A110130F20090
:1002C0007208F107831203130130ED070318EE0AD9
:1002D0000030EE070130EB070318EC0A0030EC07A2
:1002E0008A296B08803E0A128A1158270A128A113D
:1002F00071080A128A117D270A128A110130F20050
:100300007208F107831203130130EB070318EC0A9C
:100310000030EC0761300A128A11F7260A128A119E
:10032000A5297108013A03198628033A03199F2861
:10033000013A0319B828073A0319D128013A0319D9
:100340002029033A03193C29A5297F280A128A117A
:02035000002883
:100DEE00F300F92E0C1EFC2EFD2EF92E7308990021
:100DFE000800FE00FE1F082F83137E1883170008BD
:100E0E0008000408FE0007308A007E0882070034BE
:100E1E0053344C34413456344534203449346E34D2
:100E2E007434653472346E3461346C34003443344B
:100E3E007934743472346F346E3420345034523406
:100E4E003234373400347908780477047604031D7D
:100E5E00312F322F332F572F0130FA000030FB0085
:100E6E000030FC000030FD007A08F6027B08031CFF
:100E7E007B0F422F432FF7027C08031C7C0F482F59
:100E8E00492FF8027D08031C7D0F4E2F4F2FF902BC
:100E9E007908780477047604031D562F572F332FC5
:100EAE000800F400831203130712740886008716D5
:100EBE000030F9000030F8000030F7003230F60054
:100ECE000A128A112A270A128A1183120313871211
:100EDE000030F9000030F8000030F7003230F60034
:100EEE000A128A112A270A128A110800F5008312A3
:100EFE00031307167508860087160030F9000030B8
:100F0E00F8000030F7003230F6000A128A112A2754
:100F1E000A128A118312031387120030F90000306F
:100F2E00F8000030F7003230F6000A128A112A2734
:100F3E000A128A110800F300B32F73080A128A11DD
:100F4E0009270A128A110A128A117D270A128A119A
:100F5E000130F4007408F307F308031DB72FC22FF6
:100F6E0073080A128A1109270A128A110038031D02
:100F7E00C12FC22FA42F0800F300103073020318E4
:100F8E00C92FCA2FD22F7308803E0A128A115827F2
:100F9E000A128A11DC2F7308EC3EF3007308C03E70
:100FAE000A128A1158270A128A11080001300A12F1
:100FBE008A1158270A128A110030F9000030F80001
:100FCE000230F7005830F6000A128A112A270A1248
:100FDE008A110800F22F831203138C1EF72FF82F9D
:0C0FEE00F22F1A08F3007308FC2F080013
:02400E00323F3F
:00000001FF
