:100000006C30840071300A128A110B200A128A1196
:100010000A128A11132864008001840A0406031955
:10002000003404060C280310003003180130F100DE
:1000300003108316031300300318013086000310E9
:1000400000300318013087001C30850006309F0007
:1000500001300A128A11D3220A128A1102300A12BE
:100060008A11D3220A128A1106300A128A11D32267
:100070000A128A110C300A128A11D3220A128A112A
:1000800038300A128A11D3220A128A1183120313FA
:10009000851005108512031000300318013086000A
:1000A0000A128A1184220A128A1100300A128A1155
:1000B00098220A128A110E300A128A11B2220A12EA
:1000C0008A1114300A128A1198220A128A110130F8
:1000D0000A128A11B2220A128A1101300A128A11F6
:1000E00028270A128A1101300A128A111D230A12C6
:1000F0008A11F100A62901300A128A111D230A1261
:100100008A11F100F108031D862887288B288312A5
:10011000031385108E288312031385146130F300B6
:1001200001300A128A11FB240A128A11BA290130FD
:100130000A128A111D230A128A11F100F108031D07
:10014000A228A328A728831203130510AA28831224
:10015000031305146130F30001300A128A11FB24E5
:100160000A128A11BA2901300A128A111D230A12B1
:100170008A11F100F108031DBE28BF28C32883128D
:1001800003138512C6288312031385166130F3000A
:1001900001300A128A11FB240A128A11BA2901308D
:1001A0000A128A111D230A128A11F1002B298312C7
:1001B0000313051DDC28DD28E728F3010314F30DE4
:1001C00001300A128A11FB240A128A11F228031044
:1001D000003003180130F30001300A128A11FB24A9
:1001E0000A128A11362983120313851DF828F9286B
:1001F0000329F3010314F30D01300A128A11FB24C1
:100200000A128A110E290310003003180130F3007E
:1002100001300A128A11FB240A128A11362983122C
:100220000313051E142915291F29F3010314F30DC7
:1002300001300A128A11FB240A128A112A2903109A
:10024000003003180130F30001300A128A11FB2438
:100250000A128A1136297108013A0319D728033A7C
:100260000319F328013A03190F293629BA29013055
:100270000A128A111D230A128A11F1000A128A1128
:1002800084220A128A11003083120313EC0000301A
:10029000ED000030EE000030EF006130F30001307F
:1002A0000A128A11FB240A128A11BA2901300A1291
:1002B0008A111D230A128A11F100831203136D089B
:1002C000803AF20080307202031D682910306C02FF
:1002D000031C6B296C2988296E08C03E0A128A11FA
:1002E000D3220A128A1171080A128A11F8220A12FC
:1002F0008A11831203130130EE070318EF0A00304E
:10030000EF070130EC070318ED0A0030ED079D29D7
:100310006C08803E0A128A11D3220A128A117108CF
:100320000A128A11F8220A128A1183120313013069
:10033000EC070318ED0A0030ED076130F3000130DF
:100340000A128A11FB240A128A11BA297108013A89
:1003500003197B28033A03199728013A0319B32894
:10036000073A0319CF28013A03193729033A031929
:0C0370005629BA2973280A128A110028A5
:1005080001300A128A11D3220A128A110030F90026
:100518000030F8000230F7005830F6000A128A114D
:10052800C5270A128A110800F30010307302031855
:100538009E2A9F2AA72A7308803E0A128A11D3226C
:100548000A128A11B12A7308EC3EF3007308C03E00
:100558000A128A11D3220A128A110800F300C32A48
:1005680073080A128A1109270A128A110A128A11B3
:10057800F8220A128A110130F4007408F307F3080C
:10058800031DC72AD22A73080A128A1109270A12D8
:100598008A110038031DD12AD22AB42A0800F4008F
:1005A8008312031307127408860087160030F900B7
:1005B8000030F8000030F7003230F6000A128A11D5
:1005C800C5270A128A118312031387120030F90013
:1005D8000030F8000030F7003230F6000A128A11B5
:1005E800C5270A128A110800F5008312031307169B
:1005F8007508860087160030F9000030F8000030D2
:10060800F7003230F6000A128A11C5270A128A1139
:100618008312031387120030F9000030F80000300D
:10062800F7003230F6000A128A11C5270A128A1119
:100638000800F3000310003003180130F500031020
:10064800003003180130F400DE2C2A2B8312031328
:1006580087192F2B302B2A2BA930F700F70B322BB9
:10066800352B5630F700F70B372B6400F6010314CF
:10067800F60D3E2B83120313871D432B442B492B66
:100688007608F7007708F504492BA630F700F70B32
:100698004B2B64007608F7007707F600F608031D71
:1006A800562B572B3E2B5630F700F70B592B64006F
:1006B800F82C5E2B831203138718632B642B5E2B95
:1006C800A930F700F70B662B692B5630F700F70BAC
:1006D8006B2B6400F6010314F60D722B83120313BF
:1006E800871C772B782B7D2B7608F7007708F50485
:1006F8007D2BA630F700F70B7F2B64007608F700F8
:100708007707F600F608031D8A2B8B2B722B5630C1
:10071800F700F70B8D2B6400F82C0310003003183A
:100728000130F500972B83120313F008031D9D2B4E
:100738009E2B972BA930F700F70BA02BA32B563035
:10074800F700F70BA52B6400F6010314F60DAC2B8C
:1007580083120313F008031DB22BB72B7608F7009A
:100768007708F504B72BA630F700F70BB92B640010
:100778007608F7007707F600F608031DC42BC52B8B
:10078800AC2B5630F700F70BC72B6400F82CCC2B9A
:1007980083120313F008031DD22BD32BCC2BA930C3
:1007A800F700F70BD52BD82B5630F700F70BDA2BC1
:1007B8006400F6010314F60DE12B8312031370088D
:1007C800013A031DE82BE92BEE2B7608F700770892
:1007D800F504EE2BA630F700F70BF02B6400760833
:1007E800F7007707F600F608031DFB2BFC2BE12B1F
:1007F8005630F700F70BFE2B6400F82C032C8312FD
:100808000313F008031D092C0A2C032CA930F70048
:10081800F70B0C2C0F2C5630F700F70B112C64003B
:10082800F6010314F60D182C831203137008013A0D
:10083800031D1F2C202C252C7608F7007708F504BB
:10084800252CA630F700F70B272C64007608F70054
:100858007707F600F608031D322C332C182C563077
:10086800F700F70B352C6400F82C3A2C831203138D
:10087800F008031D402C412C3A2CA930F700F70B47
:10088800432C462C5630F700F70B482C6400F60131
:100898000314F60D4F2C831203137008013A031D3D
:1008A800562C572C5C2C7608F7007708F5045C2C3E
:1008B800A630F700F70B5E2C64007608F700770780
:1008C800F600F608031D692C6A2C4F2C5630F700E9
:1008D800F70B6C2C6400F82C712C83120313F008AE
:1008E800031D772C782C712CA930F700F70B7A2C84
:1008F8007D2C5630F700F70B7F2C6400F6010314AB
:10090800F60D862C831203137008013A031D8D2CF3
:100918008E2C932C7608F7007708F504932CA630D4
:10092800F700F70B952C64007608F7007707F600B8
:10093800F608031DA02CA12C862C5630F700F70BC7
:10094800A32C6400F82CA82C83120313F008031DB1
:10095800AE2CAF2CA82CA930F700F70BB12CB42C77
:100968005630F700F70BB62C6400F6010314F60DA9
:10097800BD2C831203137008013A031DC42CC52C27
:10098800CA2C7608F7007708F504CA2CA630F700B9
:10099800F70BCC2C64007608F7007707F600F6080A
:1009A800031DD72CD82CBD2C5630F700F70BDA2CAA
:1009B8006400F82C7308013A0319292B033A031928
:1009C8005D2B013A0319912B073A0319CB2B013AF6
:1009D8000319022C033A0319392C013A0319702C14
:1009E8000F3A0319A72CF82C7508FA2C0800F40004
:1009F800E52E0711A830F600F60B002DF5010314BB
:100A0800F50D062D73087505031D0B2D0C2D142DE2
:100A1800831203130711A630F600F60B112D1C2DB7
:100A2800831203130715A630F600F60B192D640080
:100A38007508F6007607F500F508031D242D252D09
:100A4800062D262D272D282D292D83120313071552
:100A5800AC30F600F60B2E2DFF2E0710A830F6004E
:100A6800F60B342DF5010314F50D3A2D73087505B1
:100A7800031D3F2D402D482D831203130710A63068
:100A8800F600F60B452D502D831203130714A630DC
:100A9800F600F60B4D2D64007508F6007607F50094
:100AA800F508031D582D592D3A2D5A2D5B2D5C2D17
:100AB8005D2D831203130714AC30F600F60B622D7C
:100AC800FF2E0310003003180130F000A830F600A4
:100AD800F60B6C2DF5010314F50D722D73087505D1
:100AE800031D772D782D842D0310831203130030F6
:100AF80003180130F000A630F600F60B812D8E2D7C
:100B080083120313F0010314F00DA630F600F60B60
:100B18008B2D64007508F6007607F500F508031DAF
:100B2800962D972D722D982D992D9A2D9B2D8312E8
:100B38000313F0010314F00DAC30F600F60BA22DF0
:100B4800FF2E0310003003180130F000A830F60023
:100B5800F60BAC2DF5010314F50DB22D73087505D0
:100B6800031DB72DB82DC42D0310831203130030B5
:100B780003180130F000A630F600F60BC12DCE2D7B
:100B880083120313F0010314F00DA630F600F60BE0
:100B9800CB2D64007508F6007607F500F508031DEF
:100BA800D62DD72DB22DD82DD92DDA2DDB2D8312A8
:100BB8000313F0010314F00DAC30F600F60BE22D30
:100BC800FF2E0310003003180130F000A830F600A3
:100BD800F60BEC2DF5010314F50DF22D73087505D0
:100BE800031DF72DF82D042E031083120313003074
:100BF80003180130F000A630F600F60B012E0E2E79
:100C080083120313F0010314F00DA630F600F60B5F
:100C18000B2E64007508F6007607F500F508031D2D
:100C2800162E172EF22D182E192E1A2E1B2E831261
:100C38000313F0010314F00DAC30F600F60B222E6E
:100C4800FF2E0310003003180130F000A830F60022
:100C5800F60B2C2EF5010314F50D322E73087505CD
:100C6800031D372E382E442E031083120313003031
:100C780003180130F000A630F600F60B412E4E2E78
:100C880083120313F0010314F00DA630F600F60BDF
:100C98004B2E64007508F6007607F500F508031D6D
:100CA800562E572E322E582E592E5A2E5B2E831220
:100CB8000313F0010314F00DAC30F600F60B622EAE
:100CC800FF2E0310003003180130F000A830F600A2
:100CD800F60B6C2EF5010314F50D722E73087505CD
:100CE800031D772E782E842E0310831203130030F1
:100CF80003180130F000A630F600F60B812E8E2E78
:100D080083120313F0010314F00DA630F600F60B5E
:100D18008B2E64007508F6007607F500F508031DAC
:100D2800962E972E722E982E992E9A2E9B2E8312DF
:100D38000313F0010314F00DAC30F600F60BA22EED
:100D4800FF2E0310003003180130F000A830F60021
:100D5800F60BAC2EF5010314F50DB22E73087505CC
:100D6800031DB72EB82EC42E0310831203130030B0
:100D780003180130F000A630F600F60BC12ECE2E77
:100D880083120313F0010314F00DA630F600F60BDE
:100D9800CB2E64007508F6007607F500F508031DEC
:100DA800D62ED72EB22ED82ED92EDA2EDB2E83129F
:100DB8000313F0010314F00DAC30F600F60BE22E2D
:100DC800FF2E7408013A0319FD2C033A0319312D3B
:100DD800013A0319652D073A0319A52D013A03199C
:100DE800E52D033A0319252E013A0319652E0F3A0A
:100DF8000319A52EFF2E0800FE00FE1F082F8313DF
:100E08007E188317000808000408FE0007308A00CF
:100E18007E088207003453344C3441345634453408
:100E2800203455344134523454345F34313400342E
:100E380043347934743472346F346E34203450341B
:100E48005234323437340034F300AA2F8312031398
:100E580007158316031307118312031387158316C7
:100E680003138715C42F8312031307148316031360
:100E78000710831203138714831603138714C42FD0
:100E880083120313F0010314F00D0310003003184C
:100E98000130F000F0010314F00DF0010314F00D1F
:100EA800C42F83120313F0010314F00D0310003054
:100EB80003180130F000F0010314F00DF0010314E1
:100EC800F00DC42F83120313F0010314F00D031067
:100ED800003003180130F000F0010314F00DF001A8
:100EE8000314F00DC42F83120313F0010314F00D43
:100EF8000310003003180130F000F0010314F00D66
:100F0800F0010314F00DC42F83120313F00103142E
:100F1800F00D0310003003180130F000F001031445
:100F2800F00DF0010314F00DC42F83120313F00128
:100F38000314F00D0310003003180130F000F00125
:100F48000314F00DF0010314F00DC42F7308013AD7
:100F580003192A2F033A0319372F013A0319442F8B
:100F6800073A0319552F013A0319662F033A031953
:100F7800772F013A0319882F0F3A0319992FC42F95
:100F880008007908780477047604031DCC2FCD2F48
:100F9800CE2FF22F0130FA000030FB000030FC00A9
:100FA8000030FD007A08F6027B08031C7B0FDD2F5A
:100FB800DE2FF7027C08031C7C0FE32FE42FF802D6
:100FC8007D08031C7D0FE92FEA2FF90279087804C0
:0E0FD80077047604031DF12FF22FCE2F0800B0
:02400E00323F3F
:00000001FF
