:100000000A128A11F62F00308A000408840A820737
:1000100000344D3441345334543445345234203454
:1000200049346E347434653472346E3461346C34F3
:10003000003443347934743472346F346E34203481
:0A00400050345234323437340034A7
:100AD6000134F000831203130C1E6D2D700899006B
:100AE6000800831203138C1E742D1A08F000700878
:100AF600F1007108080001300A128A11E8250A126D
:100B06008A110030F3000030F2000230F100583054
:100B1600F0000A128A11C5250800FA0010307A0280
:100B260003189B2D7A08803E0A128A11E8250800D0
:100B36007A08EC3EF9007908FA007A08C03E0A12F3
:100B46008A11E8250800FA007A08031908007A08CD
:100B560084000A128A1103200A128A11003A031924
:100B660008007A0884000A128A1103200A128A11E0
:100B76000A128A110B260A128A110130F900790825
:100B8600FA07A72D7308720471047004031908008C
:100B96000130F4000030F5000030F6000030F700B8
:100BA6007408F0027508031C750FDA2DDB2DF102AF
:100BB6007608031C760FE02DE12DF2027708031C60
:100BC600770FE62DC52DF302C52DF800831203130A
:100BD60007127808860087160030F3000030F2000E
:100BE6000030F1003230F0000A128A11C5250A12CF
:100BF6008A118312031387120030F3000030F200CB
:100C06000030F1003230F0000A128A11C5250800C2
:100C1600F80083120313071678088600871600303B
:100C2600F3000030F2000030F1003230F0000A121A
:100C36008A11C5250A128A118312031387120030FE
:100C4600F3000030F2000030F1003230F0000A12FA
:100C56008A11C5250800F3007308031D472E0330CB
:100C66000A128A116C250A128A1100300A128A1198
:100C76006C250A128A110A128A117425F20072086A
:100C860083120313AA00080003300A128A116C2586
:100C96000A128A1101300A128A116C250A128A1167
:100CA6000A128A117425F200720883120313AA002D
:100CB6000800F3007308031D752E01300A128A110D
:100CC6006C250A128A1100300A128A116C250A1242
:100CD6008A110A128A117425F2007208831203130C
:100CE600AA00080001300A128A116C250A128A111C
:100CF60001300A128A116C250A128A110A128A1107
:100D06007425F200720883120313AA000800F30088
:100D16007308031DA32E02300A128A116C250A12CB
:100D26008A1100300A128A116C250A128A110A12D7
:100D36008A117425F200720883120313AA000800B0
:100D460002300A128A116C250A128A1101300A121F
:100D56008A116C250A128A110A128A117425F20068
:100D6600720883120313AA00080083120313A40156
:100D7600A40AA101A501A50AA201A601A60AA3012A
:100D8600A701A70AA801A80AA901A90A831603139D
:100D9600860187011C30850006309F0001300A124B
:100DA6008A11E8250A128A1102300A128A11E825E8
:100DB6000A128A1106300A128A11E8250A128A11C5
:100DC6000C300A128A11E8250A128A1138300A12E2
:100DD6008A11E8250A128A11831203138510051059
:100DE600851286010A128A117E250A128A1100309E
:100DF6000A128A1190250A128A1111300A128A11D2
:100E0600A6250A128A1114300A128A1190250A128E
:100E16008A1101300A128A11A6250A128A1183162E
:100E2600031307138717813099001815981618139E
:100E3600831203131813181698171A08FB007B0859
:100E4600A0001A08FB007B08A0008510051085127B
:100E56000519412F24080319482FA4012108031D51
:100E6600362F0130372F0030FB007B08A100210808
:100E76000A128A115C260A128A11482F831203135A
:100E86002408031D482FA401A40A831203138519FD
:100E9600602F25080319672FA5012208031D552F6A
:100EA6000130562F0030FB007B08A20022080A12F0
:100EB6008A118A260A128A11672F831203132508BC
:100EC600031D672FA501A50A83120313051A7F2F99
:100ED60026080319862FA6012308031D742F013047
:100EE600752F0030FB007B08A30023080A128A1125
:100EF6002E260A128A11862F831203132608031D33
:100F0600862FA601A60A04300A128A116C250A1237
:100F16008A1101300A128A116C250A128A110A12E4
:100F26008A1174250A128A11FB007B0883120313A7
:100F3600AA002A08031DA62F27080319AB2FA7010D
:100F460002308506AB2F2708031DAB2FA701A70A82
:100F560004300A128A116C250A128A1102300A120A
:100F66008A116C250A128A110A128A1174250A122C
:100F76008A11FB007B0883120313AA002A08031DAB
:100F8600CB2F28080319D02FA80101308506D02FB2
:100F96002808031DD02FA801A80A04300A128A11B6
:100FA6006C250A128A1103300A128A116C250A125C
:100FB6008A110A128A1174250A128A11FB007B080B
:100FC60083120313AA002A08031DF02F2908031908
:100FD6002B2FA901203085062B2F2908031D2B2F27
:100FE600A901A90A2B2F831203130A128A116B2552
:0A0FF600AA0083010A128A11B82E26
:02400E0032FF7F
:00000001FF
